{
  "_format": "hh-sol-artifact-1",
  "contractName": "DocumentManagement",
  "sourceName": "contracts/DocumentManagement.sol",
  "abi": [
    {
      "anonymous": false,
      "inputs": [
        {
          "indexed": true,
          "internalType": "bytes32",
          "name": "documentId",
          "type": "bytes32"
        },
        {
          "indexed": true,
          "internalType": "address",
          "name": "owner",
          "type": "address"
        },
        {
          "indexed": false,
          "internalType": "string",
          "name": "name",
          "type": "string"
        }
      ],
      "name": "DocumentAdded",
      "type": "event"
    },
    {
      "anonymous": false,
      "inputs": [
        {
          "indexed": true,
          "internalType": "bytes32",
          "name": "documentId",
          "type": "bytes32"
        },
        {
          "indexed": true,
          "internalType": "address",
          "name": "owner",
          "type": "address"
        },
        {
          "indexed": true,
          "internalType": "address",
          "name": "givenTo",
          "type": "address"
        }
      ],
      "name": "DocumentGiven",
      "type": "event"
    },
    {
      "inputs": [
        {
          "internalType": "string",
          "name": "_ipfsHash",
          "type": "string"
        },
        {
          "internalType": "string",
          "name": "_name",
          "type": "string"
        }
      ],
      "name": "addDocument",
      "outputs": [
        {
          "internalType": "bytes32",
          "name": "",
          "type": "bytes32"
        }
      ],
      "stateMutability": "nonpayable",
      "type": "function"
    },
    {
      "inputs": [],
      "name": "getAllDocuments",
      "outputs": [
        {
          "internalType": "bytes32[]",
          "name": "",
          "type": "bytes32[]"
        }
      ],
      "stateMutability": "view",
      "type": "function"
    },
    {
      "inputs": [
        {
          "internalType": "bytes32",
          "name": "_documentId",
          "type": "bytes32"
        }
      ],
      "name": "getDocument",
      "outputs": [
        {
          "internalType": "string",
          "name": "",
          "type": "string"
        },
        {
          "internalType": "address",
          "name": "",
          "type": "address"
        },
        {
          "internalType": "string",
          "name": "",
          "type": "string"
        }
      ],
      "stateMutability": "view",
      "type": "function"
    },
    {
      "inputs": [
        {
          "internalType": "string",
          "name": "_docId",
          "type": "string"
        },
        {
          "internalType": "address",
          "name": "_user",
          "type": "address"
        }
      ],
      "name": "giveDocument",
      "outputs": [],
      "stateMutability": "nonpayable",
      "type": "function"
    }
  ],
  "bytecode": "0x6080604052348015600f57600080fd5b506110b68061001f6000396000f3fe608060405234801561001057600080fd5b506004361061004c5760003560e01c80634d2b1978146100515780639fa5f50b14610081578063ae390d5b1461009f578063b10d6b41146100bb575b600080fd5b61006b60048036038101906100669190610880565b6100ed565b6040516100789190610911565b60405180910390f35b6100896102b2565b60405161009691906109ea565b60405180910390f35b6100b960048036038101906100b49190610a6a565b610347565b005b6100d560048036038101906100d09190610af2565b6105b7565b6040516100e493929190610bad565b60405180910390f35b6000808333604051602001610103929190610c76565b60405160208183030381529060405280519060200120905060008060008381526020019081526020016000209050848160000190816101429190610eb4565b50338160010160006101000a81548173ffffffffffffffffffffffffffffffffffffffff021916908373ffffffffffffffffffffffffffffffffffffffff160217905550838160020190816101979190610eb4565b5060018160030160003373ffffffffffffffffffffffffffffffffffffffff1673ffffffffffffffffffffffffffffffffffffffff16815260200190815260200160002060006101000a81548160ff021916908315150217905550600160003373ffffffffffffffffffffffffffffffffffffffff1673ffffffffffffffffffffffffffffffffffffffff1681526020019081526020016000208290806001815401808255809150506001900390600052602060002001600090919091909150553373ffffffffffffffffffffffffffffffffffffffff16827f1c31e8281c85ea6c061094ec7ed75eb4a15e0bb0cbd1039629e4dc834f47da1c8660405161029f9190610f86565b60405180910390a3819250505092915050565b6060600160003373ffffffffffffffffffffffffffffffffffffffff1673ffffffffffffffffffffffffffffffffffffffff16815260200190815260200160002080548060200260200160405190810160405280929190818152602001828054801561033d57602002820191906000526020600020905b815481526020019060010190808311610329575b5050505050905090565b6000823360405160200161035c929190610c76565b604051602081830303815290604052805190602001209050600073ffffffffffffffffffffffffffffffffffffffff168273ffffffffffffffffffffffffffffffffffffffff16036103e3576040517f08c379a00000000000000000000000000000000000000000000000000000000081526004016103da90610ff4565b60405180910390fd5b3373ffffffffffffffffffffffffffffffffffffffff1660008083815260200190815260200160002060010160009054906101000a900473ffffffffffffffffffffffffffffffffffffffff1673ffffffffffffffffffffffffffffffffffffffff1614610486576040517f08c379a000000000000000000000000000000000000000000000000000000000815260040161047d90611060565b60405180910390fd5b600160008083815260200190815260200160002060030160008473ffffffffffffffffffffffffffffffffffffffff1673ffffffffffffffffffffffffffffffffffffffff16815260200190815260200160002060006101000a81548160ff021916908315150217905550600160008373ffffffffffffffffffffffffffffffffffffffff1673ffffffffffffffffffffffffffffffffffffffff1681526020019081526020016000208190806001815401808255809150506001900390600052602060002001600090919091909150558173ffffffffffffffffffffffffffffffffffffffff163373ffffffffffffffffffffffffffffffffffffffff16827f38454094b8d85672feb86f2c3e223835307a5a518882599ff055fcf9ecb37fcc60405160405180910390a4505050565b60606000606060008060008681526020019081526020016000209050806000018160010160009054906101000a900473ffffffffffffffffffffffffffffffffffffffff168260020182805461060c90610ccd565b80601f016020809104026020016040519081016040528092919081815260200182805461063890610ccd565b80156106855780601f1061065a57610100808354040283529160200191610685565b820191906000526020600020905b81548152906001019060200180831161066857829003601f168201915b5050505050925080805461069890610ccd565b80601f01602080910402602001604051908101604052809291908181526020018280546106c490610ccd565b80156107115780601f106106e657610100808354040283529160200191610711565b820191906000526020600020905b8154815290600101906020018083116106f457829003601f168201915b50505050509050935093509350509193909250565b6000604051905090565b600080fd5b600080fd5b600080fd5b600080fd5b6000601f19601f8301169050919050565b7f4e487b7100000000000000000000000000000000000000000000000000000000600052604160045260246000fd5b61078d82610744565b810181811067ffffffffffffffff821117156107ac576107ab610755565b5b80604052505050565b60006107bf610726565b90506107cb8282610784565b919050565b600067ffffffffffffffff8211156107eb576107ea610755565b5b6107f482610744565b9050602081019050919050565b82818337600083830152505050565b600061082361081e846107d0565b6107b5565b90508281526020810184848401111561083f5761083e61073f565b5b61084a848285610801565b509392505050565b600082601f8301126108675761086661073a565b5b8135610877848260208601610810565b91505092915050565b6000806040838503121561089757610896610730565b5b600083013567ffffffffffffffff8111156108b5576108b4610735565b5b6108c185828601610852565b925050602083013567ffffffffffffffff8111156108e2576108e1610735565b5b6108ee85828601610852565b9150509250929050565b6000819050919050565b61090b816108f8565b82525050565b60006020820190506109266000830184610902565b92915050565b600081519050919050565b600082825260208201905092915050565b6000819050602082019050919050565b610961816108f8565b82525050565b60006109738383610958565b60208301905092915050565b6000602082019050919050565b60006109978261092c565b6109a18185610937565b93506109ac83610948565b8060005b838110156109dd5781516109c48882610967565b97506109cf8361097f565b9250506001810190506109b0565b5085935050505092915050565b60006020820190508181036000830152610a04818461098c565b905092915050565b600073ffffffffffffffffffffffffffffffffffffffff82169050919050565b6000610a3782610a0c565b9050919050565b610a4781610a2c565b8114610a5257600080fd5b50565b600081359050610a6481610a3e565b92915050565b60008060408385031215610a8157610a80610730565b5b600083013567ffffffffffffffff811115610a9f57610a9e610735565b5b610aab85828601610852565b9250506020610abc85828601610a55565b9150509250929050565b610acf816108f8565b8114610ada57600080fd5b50565b600081359050610aec81610ac6565b92915050565b600060208284031215610b0857610b07610730565b5b6000610b1684828501610add565b91505092915050565b600081519050919050565b600082825260208201905092915050565b60005b83811015610b59578082015181840152602081019050610b3e565b60008484015250505050565b6000610b7082610b1f565b610b7a8185610b2a565b9350610b8a818560208601610b3b565b610b9381610744565b840191505092915050565b610ba781610a2c565b82525050565b60006060820190508181036000830152610bc78186610b65565b9050610bd66020830185610b9e565b8181036040830152610be88184610b65565b9050949350505050565b600081905092915050565b6000610c0882610b1f565b610c128185610bf2565b9350610c22818560208601610b3b565b80840191505092915050565b60008160601b9050919050565b6000610c4682610c2e565b9050919050565b6000610c5882610c3b565b9050919050565b610c70610c6b82610a2c565b610c4d565b82525050565b6000610c828285610bfd565b9150610c8e8284610c5f565b6014820191508190509392505050565b7f4e487b7100000000000000000000000000000000000000000000000000000000600052602260045260246000fd5b60006002820490506001821680610ce557607f821691505b602082108103610cf857610cf7610c9e565b5b50919050565b60008190508160005260206000209050919050565b60006020601f8301049050919050565b600082821b905092915050565b600060088302610d607fffffffffffffffffffffffffffffffffffffffffffffffffffffffffffffffff82610d23565b610d6a8683610d23565b95508019841693508086168417925050509392505050565b6000819050919050565b6000819050919050565b6000610db1610dac610da784610d82565b610d8c565b610d82565b9050919050565b6000819050919050565b610dcb83610d96565b610ddf610dd782610db8565b848454610d30565b825550505050565b600090565b610df4610de7565b610dff818484610dc2565b505050565b5b81811015610e2357610e18600082610dec565b600181019050610e05565b5050565b601f821115610e6857610e3981610cfe565b610e4284610d13565b81016020851015610e51578190505b610e65610e5d85610d13565b830182610e04565b50505b505050565b600082821c905092915050565b6000610e8b60001984600802610e6d565b1980831691505092915050565b6000610ea48383610e7a565b9150826002028217905092915050565b610ebd82610b1f565b67ffffffffffffffff811115610ed657610ed5610755565b5b610ee08254610ccd565b610eeb828285610e27565b600060209050601f831160018114610f1e5760008415610f0c578287015190505b610f168582610e98565b865550610f7e565b601f198416610f2c86610cfe565b60005b82811015610f5457848901518255600182019150602085019450602081019050610f2f565b86831015610f715784890151610f6d601f891682610e7a565b8355505b6001600288020188555050505b505050505050565b60006020820190508181036000830152610fa08184610b65565b905092915050565b7f496e76616c696420757365722061646472657373000000000000000000000000600082015250565b6000610fde601483610b2a565b9150610fe982610fa8565b602082019050919050565b6000602082019050818103600083015261100d81610fd1565b9050919050565b7f4e6f206572657320656c206475656e6f00000000000000000000000000000000600082015250565b600061104a601083610b2a565b915061105582611014565b602082019050919050565b600060208201905081810360008301526110798161103d565b905091905056fea2646970667358221220530235d11b414d640fa03fb2b707f3243c1b43914768c78d027c8bd808f2f2ee64736f6c634300081c0033",
  "linkReferences": {},
  "deployedLinkReferences": {}
}