{
  "_format": "hh-sol-artifact-1",
  "contractName": "DocumentManagement",
  "sourceName": "contracts/DocumentManagement.sol",
  "abi": [
    {
      "anonymous": false,
      "inputs": [
        {
          "indexed": true,
          "internalType": "bytes32",
          "name": "documentId",
          "type": "bytes32"
        },
        {
          "indexed": true,
          "internalType": "address",
          "name": "owner",
          "type": "address"
        },
        {
          "indexed": false,
          "internalType": "string",
          "name": "name",
          "type": "string"
        }
      ],
      "name": "DocumentAdded",
      "type": "event"
    },
    {
      "anonymous": false,
      "inputs": [
        {
          "indexed": true,
          "internalType": "bytes32",
          "name": "documentId",
          "type": "bytes32"
        },
        {
          "indexed": true,
          "internalType": "address",
          "name": "owner",
          "type": "address"
        },
        {
          "indexed": true,
          "internalType": "address",
          "name": "givenTo",
          "type": "address"
        }
      ],
      "name": "DocumentGiven",
      "type": "event"
    },
    {
      "inputs": [
        {
          "internalType": "string",
          "name": "_ipfsHash",
          "type": "string"
        },
        {
          "internalType": "string",
          "name": "_name",
          "type": "string"
        }
      ],
      "name": "addDocument",
      "outputs": [
        {
          "internalType": "bytes32",
          "name": "",
          "type": "bytes32"
        }
      ],
      "stateMutability": "nonpayable",
      "type": "function"
    },
    {
      "inputs": [],
      "name": "getAllDocuments",
      "outputs": [
        {
          "internalType": "bytes32[]",
          "name": "",
          "type": "bytes32[]"
        }
      ],
      "stateMutability": "view",
      "type": "function"
    },
    {
      "inputs": [
        {
          "internalType": "bytes32",
          "name": "_documentId",
          "type": "bytes32"
        }
      ],
      "name": "getDocument",
      "outputs": [
        {
          "internalType": "string",
          "name": "",
          "type": "string"
        },
        {
          "internalType": "address",
          "name": "",
          "type": "address"
        },
        {
          "internalType": "string",
          "name": "",
          "type": "string"
        }
      ],
      "stateMutability": "view",
      "type": "function"
    },
    {
      "inputs": [
        {
          "internalType": "string",
          "name": "_docId",
          "type": "string"
        },
        {
          "internalType": "address",
          "name": "_user",
          "type": "address"
        }
      ],
      "name": "giveDocument",
      "outputs": [],
      "stateMutability": "nonpayable",
      "type": "function"
    }
  ],
  "bytecode": "0x6080604052348015600f57600080fd5b50610fbc8061001f6000396000f3fe608060405234801561001057600080fd5b506004361061004c5760003560e01c80634d2b1978146100515780639fa5f50b14610081578063ae390d5b1461009f578063b10d6b41146100bb575b600080fd5b61006b600480360381019061006691906107db565b6100ed565b604051610078919061086c565b60405180910390f35b6100896102b2565b6040516100969190610945565b60405180910390f35b6100b960048036038101906100b491906109c5565b610347565b005b6100d560048036038101906100d09190610a4d565b610512565b6040516100e493929190610b08565b60405180910390f35b6000808333604051602001610103929190610bd1565b60405160208183030381529060405280519060200120905060008060008381526020019081526020016000209050848160000190816101429190610e0f565b50338160010160006101000a81548173ffffffffffffffffffffffffffffffffffffffff021916908373ffffffffffffffffffffffffffffffffffffffff160217905550838160020190816101979190610e0f565b5060018160030160003373ffffffffffffffffffffffffffffffffffffffff1673ffffffffffffffffffffffffffffffffffffffff16815260200190815260200160002060006101000a81548160ff021916908315150217905550600160003373ffffffffffffffffffffffffffffffffffffffff1673ffffffffffffffffffffffffffffffffffffffff1681526020019081526020016000208290806001815401808255809150506001900390600052602060002001600090919091909150553373ffffffffffffffffffffffffffffffffffffffff16827f1c31e8281c85ea6c061094ec7ed75eb4a15e0bb0cbd1039629e4dc834f47da1c8660405161029f9190610ee1565b60405180910390a3819250505092915050565b6060600160003373ffffffffffffffffffffffffffffffffffffffff1673ffffffffffffffffffffffffffffffffffffffff16815260200190815260200160002080548060200260200160405190810160405280929190818152602001828054801561033d57602002820191906000526020600020905b815481526020019060010190808311610329575b5050505050905090565b60008260405160200161035a9190610f03565b604051602081830303815290604052805190602001209050600073ffffffffffffffffffffffffffffffffffffffff168273ffffffffffffffffffffffffffffffffffffffff16036103e1576040517f08c379a00000000000000000000000000000000000000000000000000000000081526004016103d890610f66565b60405180910390fd5b600160008083815260200190815260200160002060030160008473ffffffffffffffffffffffffffffffffffffffff1673ffffffffffffffffffffffffffffffffffffffff16815260200190815260200160002060006101000a81548160ff021916908315150217905550600160008373ffffffffffffffffffffffffffffffffffffffff1673ffffffffffffffffffffffffffffffffffffffff1681526020019081526020016000208190806001815401808255809150506001900390600052602060002001600090919091909150558173ffffffffffffffffffffffffffffffffffffffff163373ffffffffffffffffffffffffffffffffffffffff16827f38454094b8d85672feb86f2c3e223835307a5a518882599ff055fcf9ecb37fcc60405160405180910390a4505050565b60606000606060008060008681526020019081526020016000209050806000018160010160009054906101000a900473ffffffffffffffffffffffffffffffffffffffff168260020182805461056790610c28565b80601f016020809104026020016040519081016040528092919081815260200182805461059390610c28565b80156105e05780601f106105b5576101008083540402835291602001916105e0565b820191906000526020600020905b8154815290600101906020018083116105c357829003601f168201915b505050505092508080546105f390610c28565b80601f016020809104026020016040519081016040528092919081815260200182805461061f90610c28565b801561066c5780601f106106415761010080835404028352916020019161066c565b820191906000526020600020905b81548152906001019060200180831161064f57829003601f168201915b50505050509050935093509350509193909250565b6000604051905090565b600080fd5b600080fd5b600080fd5b600080fd5b6000601f19601f8301169050919050565b7f4e487b7100000000000000000000000000000000000000000000000000000000600052604160045260246000fd5b6106e88261069f565b810181811067ffffffffffffffff82111715610707576107066106b0565b5b80604052505050565b600061071a610681565b905061072682826106df565b919050565b600067ffffffffffffffff821115610746576107456106b0565b5b61074f8261069f565b9050602081019050919050565b82818337600083830152505050565b600061077e6107798461072b565b610710565b90508281526020810184848401111561079a5761079961069a565b5b6107a584828561075c565b509392505050565b600082601f8301126107c2576107c1610695565b5b81356107d284826020860161076b565b91505092915050565b600080604083850312156107f2576107f161068b565b5b600083013567ffffffffffffffff8111156108105761080f610690565b5b61081c858286016107ad565b925050602083013567ffffffffffffffff81111561083d5761083c610690565b5b610849858286016107ad565b9150509250929050565b6000819050919050565b61086681610853565b82525050565b6000602082019050610881600083018461085d565b92915050565b600081519050919050565b600082825260208201905092915050565b6000819050602082019050919050565b6108bc81610853565b82525050565b60006108ce83836108b3565b60208301905092915050565b6000602082019050919050565b60006108f282610887565b6108fc8185610892565b9350610907836108a3565b8060005b8381101561093857815161091f88826108c2565b975061092a836108da565b92505060018101905061090b565b5085935050505092915050565b6000602082019050818103600083015261095f81846108e7565b905092915050565b600073ffffffffffffffffffffffffffffffffffffffff82169050919050565b600061099282610967565b9050919050565b6109a281610987565b81146109ad57600080fd5b50565b6000813590506109bf81610999565b92915050565b600080604083850312156109dc576109db61068b565b5b600083013567ffffffffffffffff8111156109fa576109f9610690565b5b610a06858286016107ad565b9250506020610a17858286016109b0565b9150509250929050565b610a2a81610853565b8114610a3557600080fd5b50565b600081359050610a4781610a21565b92915050565b600060208284031215610a6357610a6261068b565b5b6000610a7184828501610a38565b91505092915050565b600081519050919050565b600082825260208201905092915050565b60005b83811015610ab4578082015181840152602081019050610a99565b60008484015250505050565b6000610acb82610a7a565b610ad58185610a85565b9350610ae5818560208601610a96565b610aee8161069f565b840191505092915050565b610b0281610987565b82525050565b60006060820190508181036000830152610b228186610ac0565b9050610b316020830185610af9565b8181036040830152610b438184610ac0565b9050949350505050565b600081905092915050565b6000610b6382610a7a565b610b6d8185610b4d565b9350610b7d818560208601610a96565b80840191505092915050565b60008160601b9050919050565b6000610ba182610b89565b9050919050565b6000610bb382610b96565b9050919050565b610bcb610bc682610987565b610ba8565b82525050565b6000610bdd8285610b58565b9150610be98284610bba565b6014820191508190509392505050565b7f4e487b7100000000000000000000000000000000000000000000000000000000600052602260045260246000fd5b60006002820490506001821680610c4057607f821691505b602082108103610c5357610c52610bf9565b5b50919050565b60008190508160005260206000209050919050565b60006020601f8301049050919050565b600082821b905092915050565b600060088302610cbb7fffffffffffffffffffffffffffffffffffffffffffffffffffffffffffffffff82610c7e565b610cc58683610c7e565b95508019841693508086168417925050509392505050565b6000819050919050565b6000819050919050565b6000610d0c610d07610d0284610cdd565b610ce7565b610cdd565b9050919050565b6000819050919050565b610d2683610cf1565b610d3a610d3282610d13565b848454610c8b565b825550505050565b600090565b610d4f610d42565b610d5a818484610d1d565b505050565b5b81811015610d7e57610d73600082610d47565b600181019050610d60565b5050565b601f821115610dc357610d9481610c59565b610d9d84610c6e565b81016020851015610dac578190505b610dc0610db885610c6e565b830182610d5f565b50505b505050565b600082821c905092915050565b6000610de660001984600802610dc8565b1980831691505092915050565b6000610dff8383610dd5565b9150826002028217905092915050565b610e1882610a7a565b67ffffffffffffffff811115610e3157610e306106b0565b5b610e3b8254610c28565b610e46828285610d82565b600060209050601f831160018114610e795760008415610e67578287015190505b610e718582610df3565b865550610ed9565b601f198416610e8786610c59565b60005b82811015610eaf57848901518255600182019150602085019450602081019050610e8a565b86831015610ecc5784890151610ec8601f891682610dd5565b8355505b6001600288020188555050505b505050505050565b60006020820190508181036000830152610efb8184610ac0565b905092915050565b6000610f0f8284610b58565b915081905092915050565b7f496e76616c696420757365722061646472657373000000000000000000000000600082015250565b6000610f50601483610a85565b9150610f5b82610f1a565b602082019050919050565b60006020820190508181036000830152610f7f81610f43565b905091905056fea2646970667358221220a1b2d84e9ebb014a13af6ed2911a73ca1ad23597115f97493740fa913ecea60764736f6c634300081c0033",
  "linkReferences": {},
  "deployedLinkReferences": {}
}