{
  "_format": "hh-sol-artifact-1",
  "contractName": "DocumentManagement",
  "sourceName": "contracts/DocumentManagement.sol",
  "abi": [
    {
      "anonymous": false,
      "inputs": [
        {
          "indexed": true,
          "internalType": "bytes32",
          "name": "documentId",
          "type": "bytes32"
        },
        {
          "indexed": true,
          "internalType": "address",
          "name": "owner",
          "type": "address"
        },
        {
          "indexed": false,
          "internalType": "string",
          "name": "name",
          "type": "string"
        }
      ],
      "name": "DocumentAdded",
      "type": "event"
    },
    {
      "anonymous": false,
      "inputs": [
        {
          "indexed": true,
          "internalType": "bytes32",
          "name": "documentId",
          "type": "bytes32"
        },
        {
          "indexed": true,
          "internalType": "address",
          "name": "owner",
          "type": "address"
        },
        {
          "indexed": true,
          "internalType": "address",
          "name": "givenTo",
          "type": "address"
        }
      ],
      "name": "DocumentGiven",
      "type": "event"
    },
    {
      "inputs": [
        {
          "internalType": "string",
          "name": "_ipfsHash",
          "type": "string"
        },
        {
          "internalType": "string",
          "name": "_name",
          "type": "string"
        }
      ],
      "name": "addDocument",
      "outputs": [
        {
          "internalType": "bytes32",
          "name": "",
          "type": "bytes32"
        }
      ],
      "stateMutability": "nonpayable",
      "type": "function"
    },
    {
      "inputs": [],
      "name": "getAllDocuments",
      "outputs": [
        {
          "internalType": "bytes32[]",
          "name": "",
          "type": "bytes32[]"
        }
      ],
      "stateMutability": "view",
      "type": "function"
    },
    {
      "inputs": [
        {
          "internalType": "bytes32",
          "name": "_documentId",
          "type": "bytes32"
        }
      ],
      "name": "getDocument",
      "outputs": [
        {
          "internalType": "string",
          "name": "",
          "type": "string"
        },
        {
          "internalType": "address",
          "name": "",
          "type": "address"
        },
        {
          "internalType": "string",
          "name": "",
          "type": "string"
        }
      ],
      "stateMutability": "view",
      "type": "function"
    },
    {
      "inputs": [
        {
          "internalType": "bytes32",
          "name": "_documentId",
          "type": "bytes32"
        },
        {
          "internalType": "address",
          "name": "_user",
          "type": "address"
        }
      ],
      "name": "giveDocument",
      "outputs": [],
      "stateMutability": "nonpayable",
      "type": "function"
    }
  ],
  "bytecode": "0x6080604052348015600f57600080fd5b506110378061001f6000396000f3fe608060405234801561001057600080fd5b506004361061004c5760003560e01c80634d2b197814610051578063604d45ba146100815780639fa5f50b1461009d578063b10d6b41146100bb575b600080fd5b61006b600480360381019061006691906107f7565b6100ed565b6040516100789190610888565b60405180910390f35b61009b6004803603810190610096919061092d565b6102b2565b005b6100a5610499565b6040516100b29190610a2b565b60405180910390f35b6100d560048036038101906100d09190610a4d565b61052e565b6040516100e493929190610b08565b60405180910390f35b6000808333604051602001610103929190610bd1565b60405160208183030381529060405280519060200120905060008060008381526020019081526020016000209050848160000190816101429190610e0f565b50338160010160006101000a81548173ffffffffffffffffffffffffffffffffffffffff021916908373ffffffffffffffffffffffffffffffffffffffff160217905550838160020190816101979190610e0f565b5060018160030160003373ffffffffffffffffffffffffffffffffffffffff1673ffffffffffffffffffffffffffffffffffffffff16815260200190815260200160002060006101000a81548160ff021916908315150217905550600160003373ffffffffffffffffffffffffffffffffffffffff1673ffffffffffffffffffffffffffffffffffffffff1681526020019081526020016000208290806001815401808255809150506001900390600052602060002001600090919091909150553373ffffffffffffffffffffffffffffffffffffffff16827f1c31e8281c85ea6c061094ec7ed75eb4a15e0bb0cbd1039629e4dc834f47da1c8660405161029f9190610ee1565b60405180910390a3819250505092915050565b3373ffffffffffffffffffffffffffffffffffffffff1660008084815260200190815260200160002060010160009054906101000a900473ffffffffffffffffffffffffffffffffffffffff1673ffffffffffffffffffffffffffffffffffffffff1614610355576040517f08c379a000000000000000000000000000000000000000000000000000000000815260040161034c90610f75565b60405180910390fd5b600073ffffffffffffffffffffffffffffffffffffffff168173ffffffffffffffffffffffffffffffffffffffff16036103c4576040517f08c379a00000000000000000000000000000000000000000000000000000000081526004016103bb90610fe1565b60405180910390fd5b600160008084815260200190815260200160002060030160008373ffffffffffffffffffffffffffffffffffffffff1673ffffffffffffffffffffffffffffffffffffffff16815260200190815260200160002060006101000a81548160ff021916908315150217905550600160008273ffffffffffffffffffffffffffffffffffffffff1673ffffffffffffffffffffffffffffffffffffffff1681526020019081526020016000208290806001815401808255809150506001900390600052602060002001600090919091909150555050565b6060600160003373ffffffffffffffffffffffffffffffffffffffff1673ffffffffffffffffffffffffffffffffffffffff16815260200190815260200160002080548060200260200160405190810160405280929190818152602001828054801561052457602002820191906000526020600020905b815481526020019060010190808311610510575b5050505050905090565b60606000606060008060008681526020019081526020016000209050806000018160010160009054906101000a900473ffffffffffffffffffffffffffffffffffffffff168260020182805461058390610c28565b80601f01602080910402602001604051908101604052809291908181526020018280546105af90610c28565b80156105fc5780601f106105d1576101008083540402835291602001916105fc565b820191906000526020600020905b8154815290600101906020018083116105df57829003601f168201915b5050505050925080805461060f90610c28565b80601f016020809104026020016040519081016040528092919081815260200182805461063b90610c28565b80156106885780601f1061065d57610100808354040283529160200191610688565b820191906000526020600020905b81548152906001019060200180831161066b57829003601f168201915b50505050509050935093509350509193909250565b6000604051905090565b600080fd5b600080fd5b600080fd5b600080fd5b6000601f19601f8301169050919050565b7f4e487b7100000000000000000000000000000000000000000000000000000000600052604160045260246000fd5b610704826106bb565b810181811067ffffffffffffffff82111715610723576107226106cc565b5b80604052505050565b600061073661069d565b905061074282826106fb565b919050565b600067ffffffffffffffff821115610762576107616106cc565b5b61076b826106bb565b9050602081019050919050565b82818337600083830152505050565b600061079a61079584610747565b61072c565b9050828152602081018484840111156107b6576107b56106b6565b5b6107c1848285610778565b509392505050565b600082601f8301126107de576107dd6106b1565b5b81356107ee848260208601610787565b91505092915050565b6000806040838503121561080e5761080d6106a7565b5b600083013567ffffffffffffffff81111561082c5761082b6106ac565b5b610838858286016107c9565b925050602083013567ffffffffffffffff811115610859576108586106ac565b5b610865858286016107c9565b9150509250929050565b6000819050919050565b6108828161086f565b82525050565b600060208201905061089d6000830184610879565b92915050565b6108ac8161086f565b81146108b757600080fd5b50565b6000813590506108c9816108a3565b92915050565b600073ffffffffffffffffffffffffffffffffffffffff82169050919050565b60006108fa826108cf565b9050919050565b61090a816108ef565b811461091557600080fd5b50565b60008135905061092781610901565b92915050565b60008060408385031215610944576109436106a7565b5b6000610952858286016108ba565b925050602061096385828601610918565b9150509250929050565b600081519050919050565b600082825260208201905092915050565b6000819050602082019050919050565b6109a28161086f565b82525050565b60006109b48383610999565b60208301905092915050565b6000602082019050919050565b60006109d88261096d565b6109e28185610978565b93506109ed83610989565b8060005b83811015610a1e578151610a0588826109a8565b9750610a10836109c0565b9250506001810190506109f1565b5085935050505092915050565b60006020820190508181036000830152610a4581846109cd565b905092915050565b600060208284031215610a6357610a626106a7565b5b6000610a71848285016108ba565b91505092915050565b600081519050919050565b600082825260208201905092915050565b60005b83811015610ab4578082015181840152602081019050610a99565b60008484015250505050565b6000610acb82610a7a565b610ad58185610a85565b9350610ae5818560208601610a96565b610aee816106bb565b840191505092915050565b610b02816108ef565b82525050565b60006060820190508181036000830152610b228186610ac0565b9050610b316020830185610af9565b8181036040830152610b438184610ac0565b9050949350505050565b600081905092915050565b6000610b6382610a7a565b610b6d8185610b4d565b9350610b7d818560208601610a96565b80840191505092915050565b60008160601b9050919050565b6000610ba182610b89565b9050919050565b6000610bb382610b96565b9050919050565b610bcb610bc6826108ef565b610ba8565b82525050565b6000610bdd8285610b58565b9150610be98284610bba565b6014820191508190509392505050565b7f4e487b7100000000000000000000000000000000000000000000000000000000600052602260045260246000fd5b60006002820490506001821680610c4057607f821691505b602082108103610c5357610c52610bf9565b5b50919050565b60008190508160005260206000209050919050565b60006020601f8301049050919050565b600082821b905092915050565b600060088302610cbb7fffffffffffffffffffffffffffffffffffffffffffffffffffffffffffffffff82610c7e565b610cc58683610c7e565b95508019841693508086168417925050509392505050565b6000819050919050565b6000819050919050565b6000610d0c610d07610d0284610cdd565b610ce7565b610cdd565b9050919050565b6000819050919050565b610d2683610cf1565b610d3a610d3282610d13565b848454610c8b565b825550505050565b600090565b610d4f610d42565b610d5a818484610d1d565b505050565b5b81811015610d7e57610d73600082610d47565b600181019050610d60565b5050565b601f821115610dc357610d9481610c59565b610d9d84610c6e565b81016020851015610dac578190505b610dc0610db885610c6e565b830182610d5f565b50505b505050565b600082821c905092915050565b6000610de660001984600802610dc8565b1980831691505092915050565b6000610dff8383610dd5565b9150826002028217905092915050565b610e1882610a7a565b67ffffffffffffffff811115610e3157610e306106cc565b5b610e3b8254610c28565b610e46828285610d82565b600060209050601f831160018114610e795760008415610e67578287015190505b610e718582610df3565b865550610ed9565b601f198416610e8786610c59565b60005b82811015610eaf57848901518255600182019150602085019450602081019050610e8a565b86831015610ecc5784890151610ec8601f891682610dd5565b8355505b6001600288020188555050505b505050505050565b60006020820190508181036000830152610efb8184610ac0565b905092915050565b7f4f6e6c792074686572206f776e65722063616e2073686172652074686520646f60008201527f63756d656e740000000000000000000000000000000000000000000000000000602082015250565b6000610f5f602683610a85565b9150610f6a82610f03565b604082019050919050565b60006020820190508181036000830152610f8e81610f52565b9050919050565b7f496e76616c696420757365722061646472657373000000000000000000000000600082015250565b6000610fcb601483610a85565b9150610fd682610f95565b602082019050919050565b60006020820190508181036000830152610ffa81610fbe565b905091905056fea26469706673582212208d571d1694713520c847ee966e3f99e7e69acef0618af74f1645840ce8aae42d64736f6c634300081c0033",
  "linkReferences": {},
  "deployedLinkReferences": {}
}