{
  "_format": "hh-sol-artifact-1",
  "contractName": "DocumentManagement",
  "sourceName": "contracts/DocumentManagement.sol",
  "abi": [
    {
      "anonymous": false,
      "inputs": [
        {
          "indexed": true,
          "internalType": "bytes32",
          "name": "documentId",
          "type": "bytes32"
        },
        {
          "indexed": true,
          "internalType": "address",
          "name": "owner",
          "type": "address"
        },
        {
          "indexed": false,
          "internalType": "string",
          "name": "name",
          "type": "string"
        }
      ],
      "name": "DocumentAdded",
      "type": "event"
    },
    {
      "anonymous": false,
      "inputs": [
        {
          "indexed": true,
          "internalType": "bytes32",
          "name": "documentId",
          "type": "bytes32"
        },
        {
          "indexed": true,
          "internalType": "address",
          "name": "owner",
          "type": "address"
        },
        {
          "indexed": true,
          "internalType": "address",
          "name": "givenTo",
          "type": "address"
        }
      ],
      "name": "DocumentGiven",
      "type": "event"
    },
    {
      "inputs": [
        {
          "internalType": "string",
          "name": "_ipfsHash",
          "type": "string"
        },
        {
          "internalType": "string",
          "name": "_name",
          "type": "string"
        }
      ],
      "name": "addDocument",
      "outputs": [
        {
          "internalType": "bytes32",
          "name": "",
          "type": "bytes32"
        }
      ],
      "stateMutability": "nonpayable",
      "type": "function"
    },
    {
      "inputs": [],
      "name": "getAllDocuments",
      "outputs": [
        {
          "internalType": "bytes32[]",
          "name": "",
          "type": "bytes32[]"
        }
      ],
      "stateMutability": "view",
      "type": "function"
    },
    {
      "inputs": [
        {
          "internalType": "bytes32",
          "name": "_documentId",
          "type": "bytes32"
        }
      ],
      "name": "getDocument",
      "outputs": [
        {
          "internalType": "string",
          "name": "",
          "type": "string"
        },
        {
          "internalType": "address",
          "name": "",
          "type": "address"
        },
        {
          "internalType": "string",
          "name": "",
          "type": "string"
        }
      ],
      "stateMutability": "view",
      "type": "function"
    },
    {
      "inputs": [
        {
          "internalType": "bytes32",
          "name": "_documentId",
          "type": "bytes32"
        },
        {
          "internalType": "address",
          "name": "_user",
          "type": "address"
        }
      ],
      "name": "giveDocument",
      "outputs": [],
      "stateMutability": "nonpayable",
      "type": "function"
    }
  ],
  "bytecode": "0x6080604052348015600f57600080fd5b506110928061001f6000396000f3fe608060405234801561001057600080fd5b506004361061004c5760003560e01c80634d2b197814610051578063604d45ba146100815780639fa5f50b1461009d578063b10d6b41146100bb575b600080fd5b61006b60048036038101906100669190610852565b6100ed565b60405161007891906108e3565b60405180910390f35b61009b60048036038101906100969190610988565b6102b2565b005b6100a56104f4565b6040516100b29190610a86565b60405180910390f35b6100d560048036038101906100d09190610aa8565b610589565b6040516100e493929190610b63565b60405180910390f35b6000808333604051602001610103929190610c2c565b60405160208183030381529060405280519060200120905060008060008381526020019081526020016000209050848160000190816101429190610e6a565b50338160010160006101000a81548173ffffffffffffffffffffffffffffffffffffffff021916908373ffffffffffffffffffffffffffffffffffffffff160217905550838160020190816101979190610e6a565b5060018160030160003373ffffffffffffffffffffffffffffffffffffffff1673ffffffffffffffffffffffffffffffffffffffff16815260200190815260200160002060006101000a81548160ff021916908315150217905550600160003373ffffffffffffffffffffffffffffffffffffffff1673ffffffffffffffffffffffffffffffffffffffff1681526020019081526020016000208290806001815401808255809150506001900390600052602060002001600090919091909150553373ffffffffffffffffffffffffffffffffffffffff16827f1c31e8281c85ea6c061094ec7ed75eb4a15e0bb0cbd1039629e4dc834f47da1c8660405161029f9190610f3c565b60405180910390a3819250505092915050565b3373ffffffffffffffffffffffffffffffffffffffff1660008084815260200190815260200160002060010160009054906101000a900473ffffffffffffffffffffffffffffffffffffffff1673ffffffffffffffffffffffffffffffffffffffff1614610355576040517f08c379a000000000000000000000000000000000000000000000000000000000815260040161034c90610fd0565b60405180910390fd5b600073ffffffffffffffffffffffffffffffffffffffff168173ffffffffffffffffffffffffffffffffffffffff16036103c4576040517f08c379a00000000000000000000000000000000000000000000000000000000081526004016103bb9061103c565b60405180910390fd5b600160008084815260200190815260200160002060030160008373ffffffffffffffffffffffffffffffffffffffff1673ffffffffffffffffffffffffffffffffffffffff16815260200190815260200160002060006101000a81548160ff021916908315150217905550600160008273ffffffffffffffffffffffffffffffffffffffff1673ffffffffffffffffffffffffffffffffffffffff1681526020019081526020016000208290806001815401808255809150506001900390600052602060002001600090919091909150558073ffffffffffffffffffffffffffffffffffffffff163373ffffffffffffffffffffffffffffffffffffffff16837f38454094b8d85672feb86f2c3e223835307a5a518882599ff055fcf9ecb37fcc60405160405180910390a45050565b6060600160003373ffffffffffffffffffffffffffffffffffffffff1673ffffffffffffffffffffffffffffffffffffffff16815260200190815260200160002080548060200260200160405190810160405280929190818152602001828054801561057f57602002820191906000526020600020905b81548152602001906001019080831161056b575b5050505050905090565b60606000606060008060008681526020019081526020016000209050806000018160010160009054906101000a900473ffffffffffffffffffffffffffffffffffffffff16826002018280546105de90610c83565b80601f016020809104026020016040519081016040528092919081815260200182805461060a90610c83565b80156106575780601f1061062c57610100808354040283529160200191610657565b820191906000526020600020905b81548152906001019060200180831161063a57829003601f168201915b5050505050925080805461066a90610c83565b80601f016020809104026020016040519081016040528092919081815260200182805461069690610c83565b80156106e35780601f106106b8576101008083540402835291602001916106e3565b820191906000526020600020905b8154815290600101906020018083116106c657829003601f168201915b50505050509050935093509350509193909250565b6000604051905090565b600080fd5b600080fd5b600080fd5b600080fd5b6000601f19601f8301169050919050565b7f4e487b7100000000000000000000000000000000000000000000000000000000600052604160045260246000fd5b61075f82610716565b810181811067ffffffffffffffff8211171561077e5761077d610727565b5b80604052505050565b60006107916106f8565b905061079d8282610756565b919050565b600067ffffffffffffffff8211156107bd576107bc610727565b5b6107c682610716565b9050602081019050919050565b82818337600083830152505050565b60006107f56107f0846107a2565b610787565b90508281526020810184848401111561081157610810610711565b5b61081c8482856107d3565b509392505050565b600082601f8301126108395761083861070c565b5b81356108498482602086016107e2565b91505092915050565b6000806040838503121561086957610868610702565b5b600083013567ffffffffffffffff81111561088757610886610707565b5b61089385828601610824565b925050602083013567ffffffffffffffff8111156108b4576108b3610707565b5b6108c085828601610824565b9150509250929050565b6000819050919050565b6108dd816108ca565b82525050565b60006020820190506108f860008301846108d4565b92915050565b610907816108ca565b811461091257600080fd5b50565b600081359050610924816108fe565b92915050565b600073ffffffffffffffffffffffffffffffffffffffff82169050919050565b60006109558261092a565b9050919050565b6109658161094a565b811461097057600080fd5b50565b6000813590506109828161095c565b92915050565b6000806040838503121561099f5761099e610702565b5b60006109ad85828601610915565b92505060206109be85828601610973565b9150509250929050565b600081519050919050565b600082825260208201905092915050565b6000819050602082019050919050565b6109fd816108ca565b82525050565b6000610a0f83836109f4565b60208301905092915050565b6000602082019050919050565b6000610a33826109c8565b610a3d81856109d3565b9350610a48836109e4565b8060005b83811015610a79578151610a608882610a03565b9750610a6b83610a1b565b925050600181019050610a4c565b5085935050505092915050565b60006020820190508181036000830152610aa08184610a28565b905092915050565b600060208284031215610abe57610abd610702565b5b6000610acc84828501610915565b91505092915050565b600081519050919050565b600082825260208201905092915050565b60005b83811015610b0f578082015181840152602081019050610af4565b60008484015250505050565b6000610b2682610ad5565b610b308185610ae0565b9350610b40818560208601610af1565b610b4981610716565b840191505092915050565b610b5d8161094a565b82525050565b60006060820190508181036000830152610b7d8186610b1b565b9050610b8c6020830185610b54565b8181036040830152610b9e8184610b1b565b9050949350505050565b600081905092915050565b6000610bbe82610ad5565b610bc88185610ba8565b9350610bd8818560208601610af1565b80840191505092915050565b60008160601b9050919050565b6000610bfc82610be4565b9050919050565b6000610c0e82610bf1565b9050919050565b610c26610c218261094a565b610c03565b82525050565b6000610c388285610bb3565b9150610c448284610c15565b6014820191508190509392505050565b7f4e487b7100000000000000000000000000000000000000000000000000000000600052602260045260246000fd5b60006002820490506001821680610c9b57607f821691505b602082108103610cae57610cad610c54565b5b50919050565b60008190508160005260206000209050919050565b60006020601f8301049050919050565b600082821b905092915050565b600060088302610d167fffffffffffffffffffffffffffffffffffffffffffffffffffffffffffffffff82610cd9565b610d208683610cd9565b95508019841693508086168417925050509392505050565b6000819050919050565b6000819050919050565b6000610d67610d62610d5d84610d38565b610d42565b610d38565b9050919050565b6000819050919050565b610d8183610d4c565b610d95610d8d82610d6e565b848454610ce6565b825550505050565b600090565b610daa610d9d565b610db5818484610d78565b505050565b5b81811015610dd957610dce600082610da2565b600181019050610dbb565b5050565b601f821115610e1e57610def81610cb4565b610df884610cc9565b81016020851015610e07578190505b610e1b610e1385610cc9565b830182610dba565b50505b505050565b600082821c905092915050565b6000610e4160001984600802610e23565b1980831691505092915050565b6000610e5a8383610e30565b9150826002028217905092915050565b610e7382610ad5565b67ffffffffffffffff811115610e8c57610e8b610727565b5b610e968254610c83565b610ea1828285610ddd565b600060209050601f831160018114610ed45760008415610ec2578287015190505b610ecc8582610e4e565b865550610f34565b601f198416610ee286610cb4565b60005b82811015610f0a57848901518255600182019150602085019450602081019050610ee5565b86831015610f275784890151610f23601f891682610e30565b8355505b6001600288020188555050505b505050505050565b60006020820190508181036000830152610f568184610b1b565b905092915050565b7f4f6e6c792074686572206f776e65722063616e2073686172652074686520646f60008201527f63756d656e740000000000000000000000000000000000000000000000000000602082015250565b6000610fba602683610ae0565b9150610fc582610f5e565b604082019050919050565b60006020820190508181036000830152610fe981610fad565b9050919050565b7f496e76616c696420757365722061646472657373000000000000000000000000600082015250565b6000611026601483610ae0565b915061103182610ff0565b602082019050919050565b6000602082019050818103600083015261105581611019565b905091905056fea2646970667358221220b2f451e639ed26bbed26673d8c0f920688a58fba2fe4f863f677a7bc27494f7d64736f6c634300081c0033",
  "linkReferences": {},
  "deployedLinkReferences": {}
}